:020000040000FA
:0600000093EF01F0120075
:020006000000F8
:08000800D9CFE6FFE1CFD9FFDB
:10001000040EE126FD0EDBCF02F0FE0EDBCF03F077
:10002000033404E202500008000E035423E2DE6AA7
:10003000DE6ADE6ADD6ADD52DD52D9CFE9FFDACF52
:10004000EAFF850EEE5C450EEE58010EEE58000EEE
:10005000EE580AE2D9CFE9FFDACFEAFFEE2A000E26
:10006000EE22EE22EE22E9D7FD0EDB06FE0E01E2C5
:10007000DB06D0D7040EE15C02E2E16AE552E16EF4
:10008000E552E7CFD9FF120000018A6B8B6B8C6BB6
:100090008D6B8E6B8F6B12008EC090F000019039CB
:1000A000F00B906F90518F11906F90C082FF1200F3
:1000B0008CC091F000019139F00B916F91518D112D
:1000C000916F91C081FF12008AC092F000019239B5
:1000D000F00B926F92518B11926F92C083FF1200BE
:1000E000230E0001925D0CE1590E915D09E1590E5C
:1000F000905D06E18A6B8B6B8C6B8D6B8E6B8F6B5F
:100100008F2B0A0E8F5D18E18F6B8E2B060E8E5D86
:1001100013E18F6B8E6B8D2B0A0E8D5D0DE18D6B58
:100120008C2B060E8C5D08E18D6B8C6B8B2B0A0E75
:100130008B5D02E18B6B8A2B12001200D9CFE6FF98
:10014000E1CFD9FF040EE126DE6ADD6A020EDB6A2A
:10015000030EDB6A80A00BD0010EE66EE66A54DF68
:10016000E552E552DF2A010E01E3DB2AF3D7DECFA9
:1001700002F0DDCF03F0033404E202500208000E67
:1001800003542BE2DE6ADD6A020EDBCF02F0030EBF
:10019000DBCF03F0D890035004E6020E025C000EA1
:1001A00003581BE224D884DF33D88EDF80A006D02A
:1001B000020EDB2A030E01E3DB2AF8D7020EDBCFA7
:1001C00002F0030EDBCF03F0033404E20250020816
:1001D000000E035401E201D0D7D7040EE15C02E225
:1001E000E16AE552E16EE552E7CFD9FF120080A443
:1001F0000ED080B4FED700018D2B0A0E8D5D02E17A
:100200008D6B8C2B060E8C5D02E18C6B8D6B12005E
:1002100080A211D080B2FED700018B2B0A0E8B5D1D
:1002200002E18B6B8A2B020E8A5D05E1040E8B5D69
:1002300002E18A6B8B6B12000F0EC16ED38CD38AD6
:10024000D388070E926E936A946A956A1DDF76DFF3
:1002500023DF2EDF39DF010EE66EE66AD5DEE552DA
:08026000E5523EDFF4D7120065
:08026800060EF66E000EF76EA3
:10027000000EF86E00010900F550856F0900F55079
:10028000866F03E1856701D03DD00900F550806F8E
:100290000900F550816F0900F550826F09000900CF
:1002A000F550E96E0900F550EA6E090009000900F1
:1002B000F550836F0900F550846F09000900F6CFEF
:1002C00087F0F7CF88F0F8CF89F080C0F6FF81C0C3
:1002D000F7FF82C0F8FF0001835302E1845307E077
:1002E0000900F550EE6E8307F8E28407F9D787C05E
:1002F000F6FF88C0F7FF89C0F8FF00018507000EF0
:06030000865BBFD712006E
:0A030600000EF36E00EE00F0060E8C
:1003100001D81200EA6002D0EE6AFCD7F350E9601F
:060320001200EE6AFCD79A
:0A03260015EE00F025EE00F0F86A75
:10033000019C34EC01F0A1EC01F01CEC01F0FBD7C6
:020340001200A9
:020342001200A7
:020000040030CA
:0100010008F6
:010002001FDE
:010003001EDE
:010005008179
:00000001FF
