:020000040000FA
:06000000D5EF03F0120031
:0A0006000100C8070000A800000078
:0400100004000000E8
:0C001400D9CFE6FFE1CFD9FF040EE126B2
:10002000FD0EDBCF14F0FE0EDBCF15F0153404E22D
:1000300014500008000E155423E2DE6ADE6ADE6A00
:10004000DD6ADD52DD52D9CFE9FFDACFEAFF850E56
:10005000EE5C450EEE58010EEE58000EEE580AE228
:10006000D9CFE9FFDACFEAFFEE2A000EEE22EE2228
:10007000EE22E9D7FD0EDB06FE0E01E2DB06D0D74D
:10008000040EE15C02E2E16AE552E16EE552E7CF7F
:10009000D9FF1200D9CFE6FFE1CFD9FF040EE12648
:1000A000FD0EDBCF14F0FE0EDBCF15F0153404E2AD
:1000B00014500008000E155423E2DE6ADE6ADE6A80
:1000C000DD6ADD52DD52D9CFE9FFDACFEAFF500E0B
:1000D000EE5C000EEE58000EEE58000EEE580AE2EE
:1000E000D9CFE9FFDACFEAFFEE2A000EEE22EE22A8
:1000F000EE22E9D7FD0EDB06FE0E01E2DB06D0D7CD
:10010000040EE15C02E2E16AE552E16EE552E7CFFE
:10011000D9FF1200D9CFE6FFE1CFD9FFE652DF6A5F
:100120001C0EDF5C02E2DF2AFBD7DF6AE552E552F4
:10013000E7CFD9FF1200D9CFE6FFE1CFD9FF040EF8
:10014000E126DE6ADE6ADE6ADD6ADD52DD52D9CF83
:10015000E9FFDACFEAFF040EEE5C000EEE58000E67
:10016000EE58000EEE5826E2DFCFE9FF010EDBCF9E
:10017000EAFFD890E936EA368E0EE926000EEA222A
:10018000EE6AED6ADFCFE9FF010EDBCFEAFFD89020
:10019000E936EA36960EE926000EEA22EE6AED6AA4
:1001A000D9CFE9FFDACFEAFFEE2A000EEE22EE22E7
:1001B000EE22CDD7040EE15C02E2E16AE552E16E87
:1001C000E552E7CFD9FF1200D9CFE6FFE1CFD9FF43
:1001D0000001A86BA96BAA6BAB6BADDFFD0EDBCF8B
:1001E00008F0FE0EDBCF09F01FEC02F007C088F02C
:1001F00008C089F009C08AF00AC08BF0146A400E6A
:10020000156E1C0E166E460E176E88C00CF089C057
:100210000DF08AC00EF08BC00FF014C007F015C0AF
:1002200008F016C009F017C00AF032EC02F0ABEC8F
:1002300002F008C08CF009C08DF00001640E8C192A
:1002400001E18D5103E10A0E8C6F8D6B8CC084F03F
:100250008DC085F00A0E0D6E0E6A84C008F085C050
:1002600009F085EC02F008C084F009C085F08CC06C
:1002700086F08DC087F00A0E0D6E0E6A86C008F0FB
:1002800087C009F085EC02F004C086F005C087F055
:100290000001853504E284510008000E855532E2E4
:1002A00084C014F085C015F0020E0D6E0E6A14C0E5
:1002B00008F015C009F085EC02F004C014F005C088
:1002C00015F0A8C0E9FFA9C0EAFFD890E936EA36E0
:1002D0008E0EE926000EEA2214C0EEFF15C0EDFFD7
:1002E0000001A82B000EA923020E0D6E0E6A84C019
:1002F00008F085C009F085EC02F008C084F009C060
:1003000085F0C6D70001873504E286510008000E4B
:10031000875532E286C014F087C015F0020E0D6ECC
:100320000E6A14C008F015C009F085EC02F004C094
:1003300014F005C015F0AAC0E9FFABC0EAFFD890E1
:10034000E936EA36960EE926000EEA2214C0EEFFE0
:1003500015C0EDFF0001AA2B000EAB23020E0D6E9F
:100360000E6A86C008F087C009F085EC02F008C06C
:1003700086F009C087F0C6D79651E8B08B80E8A018
:100380008B909851E8B08B82E8A08B929A51E8B09C
:100390008B84E8A08B949C51E8B08B86E8A08B9668
:1003A0008E51E8B08B88E8A08B989051E8B08B8A8A
:1003B000E8A08B9A9251E8B08B8CE8A08B9C94516A
:1003C000E8B08B8EE8A08B9EE552E7CFD9FF1200F4
:1003D0000F0EC16E010E926E946AD38CD38AD388AD
:1003E0000001806B816B0001826B836B80A0FED764
:1003F00080B0FED780B00BD0010EE66EE66A8ADED2
:10040000E552E5520001822B000E8323F3D780A032
:100410000BD0010EE66EE66A7DDEE552E552000184
:10042000822B000E8323F3D782C0E6FF83C0E6FF52
:0A043000CBDEE552E552D7D71200EB
:06043A00019E08D0019EA6
:1004400009AE05D0086C091EE86A0922018E09C0B0
:1004500003F008C002F0136A126A8E0E046E056A79
:10046000F6EF02F0016A32EC03F04AEC03F001B659
:10047000DAEF02F001A205D001BADAEF02F0E1EF03
:1004800002F001BAEDEF02F001A005D001B8DAEFF9
:1004900002F0EDEF02F001B8E1EF02F0056A7F0E25
:1004A0000A24046EE86A05220F50045EE86A055AC1
:1004B0001A0E106E0A6A126A136A026A036A0C50F4
:1004C000075E0D50085A0E50095A000E0A5A09E7E5
:1004D0000C5007260D5008220E500922000E0A2249
:1004E00001D0128AD8900736083609360A36D890D5
:1004F0001236133602360336102EE1D70950081093
:100500000710D8A4128AF6EF02F0006A0EAE8EEF42
:1005100002F00D6C0E1EE86A0E22001E09AE96EF68
:1005200002F0086C091EE86A0922001EAFEC03F015
:1005300009BEA6EF02F000AE000C086C091EE86AC6
:100540000922046C051EE86A0522000C00BE9DEF1E
:1005500002F00188FF0C016A32EC03F001B6B5EF3E
:1005600002F001A20ED001B405D07F0E096EFF0E7D
:10057000086E1FD0800E096E086A1BD0096A086ACF
:1005800018D001B0FBD78F0E0A60EDD77E0E0A643B
:10059000F5D78E0E0A5C05E0D890093208320A2A97
:1005A000F8D701A406D0086C091EE86A092209AE32
:1005B000E5D712007F0E0A6EFF0E096E086E076EF9
:1005C00012007F0E01BEFF0E0A6E02D07F0E0A6E71
:1005D000800E096E086A076AF3D701AE04D0800E58
:1005E0000A6E096AF7D70A6A096AF4D7035002103B
:1005F00013101210F8E005BEF0D703BE0CD0045063
:100600000510EBE0D8901236133602360336040696
:10061000D8A00506F2D70550D4E10428D2E012AEE6
:1006200011D07F0E121402E113A00CD0132AE86A35
:100630000222032207E3D880033202321332042A53
:100640000428BFE00450C9E013C007F002C008F05E
:100650000334096E04300A6E09320A9E01BE0A8E06
:10066000E0EF02F009360A3602E30184017E06E17A
:1006700001800A6A096A086A076A12000A2803E008
:10068000D88009321200D890093202E101821200AA
:10069000018612000E360F3602E3018C017E06E160
:1006A00001880F6A0E6A0D6A0C6A12000F2803E0B7
:1006B000D8800E321200D8900E32EAE1018A120080
:1006C000060EF66E000EF76E000EF86E00010900C1
:1006D000F550A36F0900F550A46F03E1A36701D0A3
:1006E0003DD00900F5509E6F0900F5509F6F09003D
:1006F000F550A06F09000900F550E96E0900F550AA
:10070000EA6E090009000900F550A16F0900F550D3
:10071000A26F09000900F6CFA5F0F7CFA6F0F8CF39
:10072000A7F09EC0F6FF9FC0F7FFA0C0F8FF000132
:10073000A15302E1A25307E00900F550EE6EA107B4
:10074000F8E2A207F9D7A5C0F6FFA6C0F7FFA7C039
:0E075000F8FF0001A307000EA45BBFD7120044
:02075E00056A2A
:10076000046A100EE76ED89008360936043605364E
:100770000D50045C0E50055805E30D50045E0E50FC
:0A078000055A082AE72EF0D71200F0
:06078A00000EF36E00EE0C
:1007900000F0060E01D81200EA6002D0EE6AFCD723
:0A07A000F350E9601200EE6AFCD786
:0607AA0015EE00F025EE43
:1007B00000F0F86A019C60EC03F0E3EC03F0E8EC75
:0607C00001F0FBD712005E
:0207C60012001F
:0407C800000000002D
:020000040030CA
:0100010008F6
:010002001FDE
:010003001EDE
:010005008179
:00000001FF
