:020000040000FA
:06000000A0EF01F0120068
:020006000000F8
:08000800D9CFE6FFE1CFD9FFDB
:10001000040EE126FD0EDBCF02F0FE0EDBCF03F077
:10002000033404E202500008000E035423E2DE6AA7
:10003000DE6ADE6ADD6ADD52DD52D9CFE9FFDACF52
:10004000EAFF850EEE5C450EEE58010EEE58000EEE
:10005000EE580AE2D9CFE9FFDACFEAFFEE2A000E26
:10006000EE22EE22EE22E9D7FD0EDB06FE0E01E2C5
:10007000DB06D0D7040EE15C02E2E16AE552E16EF4
:10008000E552E7CFD9FF1200D9CFE6FFE1CFD9FF84
:10009000020EE126FD0EDBCF02F0FE0EDBCF03F0F9
:1000A000033404E202500008000E035416E2DE6A34
:1000B000DD6ADECF02F0DDCF03F0500E025C000EF1
:1000C000035805E2DF2A010E01E3DB2AF2D7FD0E19
:1000D000DB06FE0E01E2DB06DDD7020EE15C02E28A
:1000E000E16AE552E16EE552E7CFD9FF1200D9CFC0
:1000F000E6FFE1CFD9FFE652FD0EDBCF02F0FE0EA8
:10010000DBCF03F0033404E202500008000E035476
:100110000DE2DF6A1D0EDF5C02E2DF2AFBD7DF6A39
:10012000FD0EDB06FE0E01E2DB06E6D7E552E552E8
:10013000E7CFD9FF1200D9CFE6FFE1CFD9FF020EFA
:10014000E1268B80080EE66EE66AD1DFE552E552C5
:100150008B90080EE66EE66ACADFE552E552DE6A6B
:10016000DD6ADECF02F0DDCF03F0080E025C000E88
:10017000035819E2FE0EDB50DF5206E0DFCFF3FF3B
:10018000E8327F0BF306FCE1E8B08B80E8A08B90AF
:10019000080EE66EE66AABDFE552E552DF2A010E95
:1001A00001E3DB2ADED78B80020EE15C02E2E16A2A
:1001B000E552E16EE552E7CFD9FF1200D9CFE6FF55
:1001C000E1CFD9FF040EE126030EDB6A82B2FED72F
:1001D000040EE66EE66A8BDFE552E552080EE66E27
:1001E000E66A85DFE552E552DE6ADD6ADECF02F0BF
:1001F000DDCF03F0080E025C000E035826E28250A9
:10020000020B01E0010EE76E020EE7CFDBFF030EEB
:10021000DBCFE6FF020EDB50DF5206E0DFCFF3FF5D
:10022000E846FE0BF306FCE1E552E710E76E030E2D
:10023000E7CFDBFF080EE66EE66A59DFE552E552CE
:10024000DF2A010E01E3DB2AD1D7030EDB50026E59
:10025000040EE15C03E200D0E16AE552E16E025077
:10026000E552E7CFD9FF12000F0EC16ED38CD38AAF
:10027000D388020E946EA2DFE66E5DDFE552FBD7F7
:0202800012006A
:0E028200060EF66E000EF76E000EF86E00010E
:100290000900F550856F0900F550866F03E1856709
:1002A00001D03DD00900F550806F0900F550816FF5
:1002B0000900F550826F09000900F550E96E090048
:1002C000F550EA6E090009000900F550836F090036
:1002D000F550846F09000900F6CF87F0F7CF88F05A
:1002E000F8CF89F080C0F6FF81C0F7FF82C0F8FF29
:1002F0000001835302E1845307E00900F550EE6EDC
:100300008307F8E28407F9D787C0F6FF88C0F7FFB4
:1003100089C0F8FF00018507000E865BBFD7120079
:10032000000EF36E00EE00F0060E01D81200EA6037
:1003300002D0EE6AFCD7F350E9601200EE6AFCD7F7
:1003400015EE00F025EE00F0F86A019C41EC01F09A
:0C035000AEEC01F034EC01F0FBD7120021
:02035C0012008D
:020000040030CA
:0100010008F6
:010002001FDE
:010003001EDE
:010005008179
:00000001FF
