:020000040000FA
:0600000007EF03F01200FF
:0A00060001002C060000800000003D
:0400100040000000AC
:0C001400D9CFE6FFE1CFD9FF040EE126B2
:10002000FD0EDBCF00F0FE0EDBCF01F0013404E269
:1000300000500008000E015423E2DE6ADE6ADE6A28
:10004000DD6ADD52DD52D9CFE9FFDACFEAFF850E56
:10005000EE5C450EEE58010EEE58000EEE580AE228
:10006000D9CFE9FFDACFEAFFEE2A000EEE22EE2228
:10007000EE22E9D7FD0EDB06FE0E01E2DB06D0D74D
:10008000040EE15C02E2E16AE552E16EE552E7CF7F
:10009000D9FF1200D9CFE6FFE1CFD9FF020EE1264A
:1000A000FD0EDBCF00F0FE0EDBCF01F0013404E2E9
:1000B00000500008000E015416E2DE6ADD6ADECF51
:1000C00000F0DDCF01F0500E005C000E015805E29B
:1000D000DF2A010E01E3DB2AF2D7FD0EDB06FE0E5E
:1000E00001E2DB06DDD7020EE15C02E2E16AE552E5
:1000F000E16EE552E7CFD9FF1200D9CFE6FFE1CF9D
:10010000D9FFE652FD0EDBCF00F0FE0EDBCF01F093
:10011000013404E200500008000E01540CE2DF6AD2
:100120001C0EDF5C02E2DF2AFBD7FD0EDB06FE0EB3
:1001300001E2DB06E7D7DF6AE552E552E7CFD9FFF8
:100140001200D9CFE6FFE1CFD9FF040EE1260F0E52
:10015000C16ED38CD38AD388936A946A956ADE6A17
:10016000DE6ADE6ADD6ADD52DD52D9CFE9FFDACF21
:10017000EAFF300EEE5C000EEE58000EEE58000E58
:10018000EE5801E3DAD1100EE66EE66A83DFE5523F
:10019000E5528A6A080E006E016A026A036AD9CFC4
:1001A000E9FFDACFEAFFEE500026EE500122EE50D2
:1001B0000222EE500322800E0024E96E000E012080
:1001C000EA6EEF508B6EDFCFE9FF010EDBCFEAFF67
:1001D000800EE926000EEA22EF508C6E010E8A6E28
:1001E0000A0EE66EE66A56DFE552E5528A6A090EA5
:1001F000006E016A026A036AD9CFE9FFDACFEAFF2B
:10020000EE500026EE500122EE500222EE50032264
:10021000800E0024E96E000E0120EA6EEF508B6E16
:10022000010E006E016A026A036AD9CFE9FFDACFD4
:10023000EAFFEE500026EE500122EE500222EE5070
:100240000322800E0024E96E000E0120EA6EEF50BA
:100250008C6E020E8A6E0A0EE66EE66A1BDFE552AF
:10026000E5528A6A0A0E006E016A026A036AD9CFF1
:10027000E9FFDACFEAFFEE500026EE500122EE5001
:100280000222EE500322800E0024E96E000E0120AF
:10029000EA6EEF508B6E020E006E016A026A036A0C
:1002A000D9CFE9FFDACFEAFFEE500026EE50012267
:1002B000EE500222EE500322800E0024E96E000E62
:1002C0000120EA6EEF508C6E040E8A6E0A0EE66E06
:1002D000E66AE0DEE552E5528A6A0B0E006E016ABC
:1002E000026A036AD9CFE9FFDACFEAFFEE500026AF
:1002F000EE500122EE500222EE500322800E002426
:10030000E96E000E0120EA6EEF508B6E030E006E58
:10031000016A026A036AD9CFE9FFDACFEAFFEE5039
:100320000026EE500122EE500222EE500322800EF3
:100330000024E96E000E0120EA6EEF508C6E080E6C
:100340008A6E0A0EE66EE66AA5DEE552E5528A6A14
:100350000C0E006E016A026A036AD9CFE9FFDACF98
:10036000EAFFEE500026EE500122EE500222EE503F
:100370000322800E0024E96E000E0120EA6EEF5089
:100380008B6E040E006E016A026A036AD9CFE9FF20
:10039000DACFEAFFEE500026EE500122EE500222A4
:1003A000EE500322800E0024E96E000E0120EA6E5A
:1003B000EF508C6E100E8A6E0A0EE66EE66A6ADEEA
:1003C000E552E5528A6A0D0E006E016A026A036AFE
:1003D000D9CFE9FFDACFEAFFEE500026EE50012236
:1003E000EE500222EE500322800E0024E96E000E31
:1003F0000120EA6EEF508B6E050E006E016A026AF4
:10040000036AD9CFE9FFDACFEAFFEE500026EE50BB
:100410000122EE500222EE500322800E0024E96EEB
:10042000000E0120EA6EEF508C6E200E8A6E0A0ECE
:10043000E66EE66A2FDEE552E5528A6A0E0E006E1F
:10044000016A026A036AD9CFE9FFDACFEAFFEE5008
:100450000026EE500122EE500222EE500322800EC2
:100460000024E96E000E0120EA6EEF508B6E060E3E
:10047000006E016A026A036AD9CFE9FFDACFEAFFA8
:10048000EE500026EE500122EE500222EE500322E2
:10049000800E0024E96E000E0120EA6EEF508C6E93
:1004A000400E8A6E0A0EE66EE66AF4DDE552E5520B
:1004B0008A6A0F0E006E016A026A036AD9CFE9FFE9
:1004C000DACFEAFFEE500026EE500122EE50022273
:1004D000EE500322800E0024E96E000E0120EA6E29
:1004E000EF508B6E070E006E016A026A036AD9CF65
:1004F000E9FFDACFEAFFEE500026EE500122EE507F
:100500000222EE500322800E0024E96E000E01202C
:10051000EA6EEF508C6E800E8A6E0A0EE66EE66A08
:10052000B9DDE552E552D9CFE9FFDACFEAFFEE2A8D
:10053000000EEE22EE22EE2218D611D6040EE15C59
:1005400002E2E16AE552E16EE552E7CFD9FF12001F
:10055000060EF66E000EF76E000EF86E0001090032
:10056000F550C56F0900F550C66F03E1C56701D0AE
:100570003DD00900F550C06F0900F550C16F09006A
:10058000F550C26F09000900F550E96E0900F550F9
:10059000EA6E090009000900F550C36F0900F55023
:1005A000C46F09000900F6CFC7F0F7CFC8F0F8CF45
:1005B000C9F0C0C0F6FFC1C0F7FFC2C0F8FF00011C
:1005C000C35302E1C45307E00900F550EE6EC307C0
:1005D000F8E2C407F9D7C7C0F6FFC8C0F7FFC9C023
:0E05E000F8FF0001C507000EC65BBFD7120072
:0205EE00000EFD
:1005F000F36E00EE00F0060E01D81200EA6002D0A1
:0E060000EE6AFCD7F350E9601200EE6AFCD7F8
:02060E0015EEE7
:1006100000F025EE00F0F86A059CA8EC02F015EC5D
:0A06200003F0A1EC00F0FBD712007C
:02062A001200BC
:04062C00FFFFFFFFCE
:10063000FFFFFFFFFFFFFFFFFFFFFFFF00EFEFEFF9
:1006400000FFFF002C2CFFFF00676798FFFF007E74
:100650007E00FFFF00FFFF8E6E6E71FFFFFFFFFF4A
:0C066000FFFFFFFFFFFFFFFFFFFFFFFF9A
:020000040030CA
:0100010008F6
:010002001FDE
:010003001EDE
:010005008179
:00000001FF
